:100000000C94DE000C94FB000C94FB000C94FB00A1
:100010000C94FB000C94FB000C94FB000C94FB0074
:100020000C94FB000C94FB000C94FB000C94FB0064
:100030000C94FB000C94FB000C94FB000C94D80D6A
:100040000C94FB000C94FB000C94FB000C94FB0044
:100050000C94FB000C94FB000C94FB000C94FB0034
:100060000C94FB000C94FB000C94FB000C94FB0024
:100070000C94FB000C94FB000C94FB000C94FB0014
:100080000C94FB000C94A1070C94FB00084AD73B8E
:100090003BCE016E84BCBFFDC12F3D6C74319ABD57
:1000A00056833DDA3D00C77F11BED9E4BB4C3E917B
:1000B0006BAAAABE000000803F6E616E00696E668A
:1000C0000000407A10F35A00A0724E18090010A5E3
:1000D000D4E80000E87648170000E40B5402000062
:1000E000CA9A3B000000E1F50500008096980000E8
:1000F0000040420F000000A0860100000010270011
:10010000000000E803000000006400000000000A96
:1001100000000000000100000000002C76D888DC00
:10012000674F0823DFC1DFAE59E1B1B796E5E3E4DD
:1001300053C63AE651997696E8E6C28426EB898C56
:100140009B62ED407C6FFCEFBC9C9F40F2BAA56FB8
:10015000A5F490055A2AF75C936B6CF9676DC11B87
:10016000FCE0E40D47FEF520E6B500D0ED902E034F
:1001700000943577050080841E080000204E0A0098
:100180000000C80C333333330F986E12831141EFE4
:100190008D2114893BE65516CFFEE6DB18D1844B42
:1001A000381BF77C1D901DA4BBE424203284725EB2
:1001B000228100C9F124ECA1E53D270011241FBED6
:1001C000CFEFD0E1DEBFCDBF13E0A0E0B1E0EEEFB6
:1001D000FEE202C005900D92AE35B107D9F714E0EA
:1001E000AEE5B3E001C01D92A132B107E1F70E9474
:1001F000F90D0C947D170C940000EF92FF920F9371
:100200001F93DF93CF9300D000D000D0CDB7DEB7DF
:100210000E94590A82E00E94400D8E010F5F1F4F1D
:10022000C8010E94450A8DB79EB708970FB6F8948B
:100230009EBF0FBE8DBFEDB7FEB7319680E0E82EB2
:1002400081E0F82EADB7BEB71296FC92EE921197F0
:1002500089819A81938382838B819C819583848316
:100260008D819E81978386830E94CE16EDB7FEB75F
:1002700038960FB6F894FEBF0FBEEDBF0E940F0A6E
:10028000C8010E94450A8DB79EB708970FB6F8942B
:100290009EBF0FBE8DBFEDB7FEB73196ADB7BEB7EF
:1002A0001296FC92EE92119789819A8193838283B0
:1002B0008B819C81958384838D819E8197838683A6
:1002C0000E94CE168FEF97EAA1E681509040A040A1
:1002D000E1F700C00000ADB7BEB718960FB6F894AE
:1002E000BEBF0FBEADBFF02EE12E08E111E08F2D95
:1002F0009E2D0E94B50900D000D0EDB7FEB7128345
:1003000001832D813E81348323830E94CE160F907A
:100310000F900F900F90EBCFEF92FF920F931F93E0
:10032000DF93CF9300D000D000D0CDB7DEB7CE01A1
:1003300001960E94B50969817A81882777FD8095A9
:10034000982F0E9494137B018C016D817E818827F8
:1003500077FD8095982F0E9494139B01AC01C801F2
:10036000B7010E94D912905823EF39E345E652E4D1
:100370000E944C1426960FB6F894DEBF0FBECDBF78
:10038000CF91DF911F910F91FF90EF900895DF9231
:10039000EF92FF920F931F93DF93CF9300D000D083
:1003A00000D0CDB7DEB722E3D22E7E010894E11C47
:1003B000F11C00E211E0C7010E94790A8DB79EB7D7
:1003C00008970FB6F8949EBF0FBE8DBFEDB7FEB76E
:1003D0003196ADB7BEB712961C930E9311978981D3
:1003E0009A81938382838B819C81958384838D8181
:1003F0009E81978386830E94CE168FE39CE90197A6
:10040000F1F700C00000DA94ADB7BEB718960FB68A
:10041000F894BEBF0FBEADBFDD2069F68AE090E064
:100420000E94E31683E391E00E94EA168AE090E0DE
:100430000E94E3160E94FD0A92E3D92E7E010894E1
:10044000E11CF11C0FE411E0C7010E94790A8DB78D
:100450009EB708970FB6F8949EBF0FBE8DBFEDB73D
:10046000FEB73196ADB7BEB712961C930E93119797
:1004700089819A81938382838B819C8195838483F4
:100480008D819E81978386830E94CE168FE39CE99F
:100490000197F1F700C00000DA94ADB7BEB7189627
:1004A0000FB6F894BEBF0FBEADBFDD2069F68AE07F
:1004B00090E00E94E31681E691E00E94EA168AE04D
:1004C00090E00E94E3160E94040B82E3D82E7E0186
:1004D0000894E11CF11C00E211E0C7010E94790AB6
:1004E0008DB79EB708970FB6F8949EBF0FBE8DBF0D
:1004F000EDB7FEB73196ADB7BEB712961C930E930B
:10050000119789819A81938382838B819C819583C2
:1005100084838D819E81978386830E94CE168FE38C
:100520009CE90197F1F700C00000DA94ADB7BEB7BF
:1005300018960FB6F894BEBF0FBEADBFDD2069F6AA
:1005400026960FB6F894DEBF0FBECDBFCF91DF91D8
:100550001F910F91FF90EF90DF900895FF920F93FE
:100560001F93CF93DF930E94AC0E81E00E943D0E5B
:1005700080E060E00E940F0E81E20E941C0EFF24CA
:10058000F394CAE6D1E00BE711E085B38F2585BB74
:1005900080E00E944E0E00D000D000D0EDB7FEB734
:1005A000D283C18363837483858396830E94CE162E
:1005B0008DB79EB706960FB6F8949EBF0FBE8DBF3F
:1005C00081E00E944E0E00D000D000D0EDB7FEB703
:1005D0001283018363837483858396830E94CE167E
:1005E0008DB79EB706960FB6F8949EBF0FBE8DBF0F
:1005F000CCCFDF92EF92FF920F931F93CF93DF93B5
:100600000E94AC0E81E00E943D0E86EF6AE00E94DF
:100610000F0EDD24D3948CE8E82E81E0F82E03E958
:1006200011E0CEE9D1E085B38D2585BB0E94960E01
:1006300000D000D0EDB7FEB73196ADB7BEB7129679
:10064000FC92EE921197828313820E94CE160F9035
:100650000F900F900F9080E00E949B0E00D000D072
:10066000EDB7FEB73196ADB7BEB712961C930E9399
:100670001197828313820E94CE160F900F900F90D5
:100680000F9081E00E949B0E00D000D0EDB7FEB726
:100690003196ADB7BEB71296DC93CE931197828395
:1006A00013820E94CE160F900F900F900F90BBCF29
:1006B0001F930E94AC0E81E00E943D0E8AE00E94D2
:1006C000320E80E060E00E940F0E80E00E943D0E3E
:1006D00010E280E460E40E940F0E8FEF91EEA4E040
:1006E00081509040A040E1F700C00000115089F710
:1006F00081E00E943D0E10E280E460E40E940F0E53
:100700008FEF91EEA4E081509040A040E1F700C04F
:100710000000115089F783E00E943D0E10E280E452
:1007200060E40E940F0E8FEF91EEA4E081509040A4
:10073000A040E1F700C00000115089F782E00E945C
:100740003D0E10E280E460E40E940F0E8FEF91EE08
:10075000A4E081509040A040E1F700C0000011509B
:1007600089F71F9108951F9389EA91E00E94EA1684
:100770008CEC91E00E94EA1681E00E943D0E81E03F
:100780000E94B20E80E060E00E940F0E81EE91E0C8
:100790000E94EA1681E00E94320E83E192E00E94FC
:1007A000EA161AE084E660E00E940F0E8FEF93EDE8
:1007B000A0E381509040A040E1F700C0000011503C
:1007C00089F78BE292E00E94EA1680E00E94B20E66
:1007D0008CEC91E00E94EA1680E060E00E940F0E2F
:1007E0008FEF93E2A4EF81509040A040E1F700C06A
:1007F000000084E592E00E94EA1615E084E660E0DD
:100800000E940F0E8FEF93EDA0E381509040A04027
:10081000E1F700C00000115089F71F910895AF92D1
:10082000BF92CF92DF92EF92FF920F931F93DF93CD
:10083000CF9300D000D0CDB7DEB781E00E943D0E4F
:1008400000D08BE692E0ADB7BEB712969C938E9324
:1008500011970E94CE160F900F9089E992E00E94A6
:10086000EA1623E0E22EF12CEC0EFD1EC7010E94D9
:10087000F70E00D000D000D0EDB7FEB731960EE9EC
:1008800012E0ADB7BEB712961C930E9311978B81F1
:10089000992787FD9095938382838C81992787FD83
:1008A0009095958384830E94CE1619821A82EDB7A3
:1008B000FEB736960FB6F894FEBF0FBEEDBF6E01C1
:1008C0000894C11CD11CC6010E94E00E0E94E80ED3
:1008D000C7010E94F70E00D000D000D0EDB7FEB7E0
:1008E0003196ADB7BEB712961C930E9311978B81BC
:1008F000992787FD9095938382838C81992787FD23
:100900009095958384830E94CE168FEF97EAA1E697
:1009100081509040A040E1F700C0000094E6B92E5D
:10092000B982BA82ADB7BEB716960FB6F894BEBFFD
:100930000FBEADBFC6010E94E00E8FEF97EAA1E6A1
:1009400081509040A040E1F700C000000E94E80EF6
:10095000C7010E94F70E00D000D000D0EDB7FEB75F
:100960003196ADB7BEB712961C930E9311978B813B
:10097000992787FD9095938382838C81992787FDA2
:100980009095958384830E94CE168FEF97EAA1E617
:1009900081509040A040E1F700C0000019821A8207
:1009A000ADB7BEB716960FB6F894BEBF0FBEADBFBB
:1009B000C6010E94E00E8FEF93EDA0E381509040BE
:1009C000A040E1F700C000000E94E80EC7010E94AD
:1009D000F70E00D000D000D0EDB7FEB73196ADB71E
:1009E000BEB712961C930E9311978B81992787FDA2
:1009F0009095938382838C81992787FD9095958329
:100A000084830E94CE168FEF97EAA1E68150904032
:100A1000A040E1F700C0000019828CE9A82EAA824C
:100A2000ADB7BEB716960FB6F894BEBF0FBEADBF3A
:100A3000C6010E94E00E8FEF93EDA0E3815090403D
:100A4000A040E1F700C000000E94E80EC7010E942C
:100A5000F70E00D000D000D0EDB7FEB73196ADB79D
:100A6000BEB712961C930E9311978B81992787FD21
:100A70009095938382838C81992787FD90959583A8
:100A800084830E94CE168FEF97EAA1E681509040B2
:100A9000A040E1F700C00000A9821A82ADB7BEB73E
:100AA00016960FB6F894BEBF0FBEADBFC6010E942A
:100AB000E00E8FEF93EDA0E381509040A040E1F76E
:100AC00000C000000E94E80EC7010E94F70E00D08F
:100AD00000D000D0EDB7FEB73196ADB7BEB71296D5
:100AE0001C930E9311978B81992787FD9095938383
:100AF00082838C81992787FD9095958384830E94BA
:100B0000CE168FEF97EAA1E681509040A040E1F722
:100B100000C00000A982BA82ADB7BEB716960FB664
:100B2000F894BEBF0FBEADBFC6010E94E00E8FEFAE
:100B300093EDA0E381509040A040E1F700C0000099
:100B40000E94E80EC7010E94F70E00D000D000D02E
:100B5000EDB7FEB73196ADB7BEB712961C930E93A4
:100B600011978B81992787FD9095938382838C8140
:100B7000992787FD9095958384830E94CE168FEFE9
:100B800097EAA1E681509040A040E1F700C0000044
:100B900019821A82ADB7BEB716960FB6F894BEBFCB
:100BA0000FBEADBFC6010E94E00E8FEF93EDA0E334
:100BB00081509040A040E1F700C000000E94E80E84
:100BC000C7010E94F70E00D000D000D0EDB7FEB7ED
:100BD0003196ADB7BEB712961C930E9311978B81C9
:100BE000992787FD9095938382838C81992787FD30
:100BF0009095958384830E94CE168FEF97EAA1E6A5
:100C000081509040A040E1F700C00000ADB7BEB7F2
:100C100016960FB6F894BEBF0FBEADBF8AEB92E03A
:100C20000E94EA160F900F900F900F90CF91DF91D6
:100C30001F910F91FF90EF90DF90CF90BF90AF90FA
:100C40000895BF92CF92DF92EF92FF920F931F937E
:100C5000DF93CF9300D00F92CDB7DEB7DE011196B0
:100C6000EEE3F3E083E001900D928150E1F78E0115
:100C70000F5F1F4F94E0E92EF12CEC0EFD1E8FEB61
:100C8000C82E82E0D82ED801BD908D0188E36B2D4F
:100C90000E945A0800D000D000D0EDB7FEB73196C0
:100CA000ADB7BEB71296DC92CE921197B282138284
:100CB000848315820E94CE16EDB7FEB736960FB626
:100CC000F894FEBF0FBEEDBF0E151F05E1F60F90A5
:100CD0000F900F90CF91DF911F910F91FF90EF90A8
:100CE000DF90CF90BF900895EF92FF920F931F93E4
:100CF000CF93DF9389ED92E00E94EA1688E362E1E8
:100D00000E945A0800D000D000D0EDB7FEB731964F
:100D1000CFEBD2E0ADB7BEB71296DC93CE9311976E
:100D200002E110E013830283848315820E94CE16B1
:100D30008DB79EB706960FB6F8949EBF0FBE8DBFB7
:100D400088E363E10E945A0800D000D000D0EDB7DC
:100D5000FEB73196ADB7BEB71296DC93CE9311971E
:100D600023E1E22EF12CF382E282848315820E9439
:100D7000CE168DB79EB706960FB6F8949EBF0FBEDF
:100D80008DBF89EE92E00E94EA1688E362E14AEAAA
:100D90000E946D0888E363E145E50E946D0883E0E9
:100DA00093E00E94EA1688E362E10E945A0800D0AC
:100DB00000D000D0EDB7FEB73196ADB7BEB71296F2
:100DC000DC93CE93119713830283848315820E9450
:100DD000CE168DB79EB706960FB6F8949EBF0FBE7F
:100DE0008DBF88E363E10E945A0800D000D000D094
:100DF000EDB7FEB73196ADB7BEB71296DC93CE9382
:100E00001197F382E282848315820E94CE168DB7F9
:100E10009EB706960FB6F8949EBF0FBE8DBFDF91AA
:100E2000CF911F910F91FF90EF900895EF92FF9255
:100E30000F931F93DF93CF930F92CDB7DEB783E16C
:100E400093E00E94EA1688E362E140E00E946D08A8
:100E500088E363E140E00E946D0883E393E00E9431
:100E6000EA1630E04FEBE42E42E0F42E02E110E00F
:100E700088E362E1432F21E039830E948C0888E3F4
:100E800062E10E945A0800D000D000D0EDB7FEB752
:100E90003196ADB7BEB71296FC92EE9211971383BE
:100EA0000283848315820E94CE1639813F5FEDB79D
:100EB000FEB736960FB6F894FEBF0FBEEDBF3830C2
:100EC000B9F60F90CF91DF911F910F91FF90EF90A6
:100ED000089582E180937000E1E7F0E080818C7FEB
:100EE000808380818160808385E48093740008958D
:100EF0001092100491E090930D0480930E0460937F
:100F00000F0410920C0485EA809374008091100401
:100F10008823E1F308951092100410920D04809339
:100F20000E0460930F041092010485EA809374000C
:100F3000809110048823E1F3089581E080931004E8
:100F400008951F920F920FB60F9211248F939F93C3
:100F5000EF93FF938091710090E0887F90708033D1
:100F6000910509F498C081339105CCF48031910545
:100F700099F18131910544F4009709F48AC08830D1
:100F8000910509F088C028C080329105A1F188320E
:100F90009105B9F18831910509F07DC032C08834DE
:100FA000910509F450C0893491054CF488339105BA
:100FB00009F442C08034910509F06DC03FC0883506
:100FC000910509F45EC0883F910509F46AC0803537
:100FD000910509F060C039C080910D04882321F08B
:100FE00080910E04880F04C080910E04880F8160E8
:100FF0008093730040C080910F04882309F449C096
:1010000022C080910F04882309F443C0E0910C04AE
:10101000F0E0EF5EFB4F80818093730085E8809362
:10102000740080910F04815080930F0480910C0410
:101030008F5F80930C0435C085EE20C080910F0433
:101040008230D8F418C085EA19C0E0910104F0E0BC
:1010500080917300EE5FFB4F808380910F0481507D
:1010600080930F04809101048F5F8093010480912D
:101070000F04813011F485E801C085EC8093740081
:1010800010C0E0910104F0E080917300EE5FFB4F2F
:10109000808385E901C085ED8093740081E08093B1
:1010A0001004FF91EF919F918F910F900FBE0F90C1
:1010B0001F9018951F93182F6093110481E080935F
:1010C0001004812F61E00E947807812F61E00E9467
:1010D0008B07809102041F9108956093110440933F
:1010E000120491E09093100462E00E947807089542
:1010F000DF93CF930F92CDB7DEB749830E945A0892
:1011000090E0498102C0959587954A95E2F78170F4
:101110000F90CF91DF9108950F931F93DF93CF939B
:1011200000D0CDB7DEB7082F162F2A8349830E943F
:101130005A08E1E0F0E0498102C0EE0FFF1F4A9536
:10114000E2F74E2F409548232A8121114E2B802F04
:10115000612F0E946D080F900F90CF91DF911F912A
:101160000F9108951F93182F873041F08A3019F49A
:101170008DE00E94B2085D9BFECF1CB980E090E03C
:101180001F910895EF92FF920F931F93CF93DF93D8
:10119000EC0180915E0390915F03009709F099C084
:1011A00000E613E05F9BFECF5C99A4C05B99A5C0ED
:1011B0008CB18D3011F08A3069F48AE0F8018083B7
:1011C000BE010E94B20880E693E090935F03809393
:1011D0005E037FC0893009F480E2982F90529F35DA
:1011E00010F0803A68F0F3E00F3A1F0711F487E03F
:1011F00003C0F80181938F01BE010E94B208D2CFD3
:10120000823131F1833130F4833009F476C0883093
:1012100049F609C0873129F08F3729F0853111F659
:1012200038C0780148C0F3E000361F0709F008F421
:10123000B9CF88E0BE010E94B20880E2BE010E94E0
:10124000B20888E0BE010E94B20801501040AACF47
:101250008DE0BE010E94B20880E6E82E83E0F82E01
:1012600006C0F70181917F01BE010E94B208E0161D
:10127000F106B8F397CF88E0BE010E94B20880E281
:10128000BE010E94B20888E0BE010E94B20801506F
:101290001040F3E000361F0709F068F783CF88E0BD
:1012A000BE010E94B20880E2BE010E94B20888E03E
:1012B000BE010E94B208870180E6E81683E0F806C6
:1012C00009F008F46FCFF70182917F01803239F77E
:1012D00069CFE0915E03F0915F032191F0935F038A
:1012E000E0935E032A3021F410925F0310925E03B4
:1012F00030E005C02EEF3FEF02C02FEF3FEFC901F6
:10130000DF91CF911F910F91FF90EF9008958BB1D6
:10131000881F8827881F089501C08CB15F99FDCF71
:1013200008959B01AC0194E0220F331F441F551F09
:101330009A95D1F760E074E284EF90E00E942C155A
:10134000215029B988E18AB981E493E090931C0483
:1013500080931B0490931E0480931D048FE493E0FC
:101360009093200480931F0408950F931F93DF939D
:10137000CF9300D000D000D0CDB7DEB78C01CE0126
:1013800001960E94790A6091B0037091B10389813E
:101390009A81680F791F7A8369838B819C81209160
:1013A000B2033091B303820F931F9C838B838D8193
:1013B0009E812091B4033091B503820F931F9E83C9
:1013C0008D8386EB93E00E94070F6B817C818DEC0F
:1013D00093E00E94070F6D817E8184EE93E00E946E
:1013E000070F8091CB039091CC03F8019183808308
:1013F0008091E2039091E303938382838091F903C8
:101400009091FA039583848326960FB6F894DEBFF5
:101410000FBECDBFCF91DF911F910F910895DF9344
:10142000CF9300D000D000D0CDB7DEB7CE0101966B
:101430000E94790A89819A81909581959F4F909316
:10144000B1038093B0038B819C81909581959F4FD0
:101450009093B3038093B2030E94600D682F70E0F5
:101460008FEF9FE70E9419158D819E81681B790B74
:101470007093B5036093B40326960FB6F894DEBF5D
:101480000FBECDBFCF91DF910895FC018091B003D5
:101490009091B103918380838091B2039091B303C3
:1014A000938382838091B4039091B5039583848361
:1014B00008951092B1031092B0031092B3031092EA
:1014C000B2031092B5031092B403089588E361E06B
:1014D0000E945A088770089588E361E00E945A08C4
:1014E0008F70089588E361E00E945A0882958F709A
:1014F0000895CF93DF93EC0182E0809311040E9462
:101500009D0788E361E00E94780788E366E00E9417
:101510008B078091020490E0807C9070998388838F
:1015200040910304342F20E0822B932B99838883EE
:101530008091040490E0807C90709B838A8340912A
:101540000504342F20E0822B932B9B838A83809188
:10155000060490E0807C90709D838C83409107040A
:10156000342F20E0822B932B9D838C83DF91CF91AE
:101570000895883731F0893731F08A3751F466E0C1
:1015800003C062E001C064E088E340E00E947808A4
:10159000089580E0089588E369E040E00E947808BB
:1015A000089588E369E041E00E947808089588E39F
:1015B00069E043E00E947808089588E369E043E029
:1015C00020E00E948C08089588E369E042E00E94D0
:1015D0007808089588E369E042E020E00E948C08E2
:1015E000089588E369E044E00E947808089588E35C
:1015F00069E047E00E947808089588E36AE040E0E7
:1016000021E00E948C08089588E36AE041E021E02F
:101610000E948C08089588E36AE042E021E00E947D
:101620008C08089588E36AE043E021E00E948C087A
:101630000895282F88E365E147E00E948C0808950B
:1016400088E365E147E00E9478080895282F88E341
:1016500065E143E00E948C08089588E365E143E07A
:101660000E947808089588E36AE046E021E00E943D
:101670008C080895282F88E365E145E00E948C08D6
:10168000089588E365E145E00E9478080895282FD1
:1016900088E36BE040E00E948C08089588E36BE0EB
:1016A00040E00E9478080895282F88E36BE041E02D
:1016B0000E948C08089588E36BE041E00E9478085E
:1016C0000895282F88E365E146E00E948C0808957C
:1016D00088E365E146E00E9478080895282F88E3B2
:1016E0006BE046E00E948C08089588E36BE046E0DA
:1016F0000E9478080895282F88E36BE047E00E9455
:101700008C08089588E36BE047E00E94780808950C
:10171000282F88E365E144E00E948C08089588E35F
:1017200065E144E00E9478080895482F88E36CE062
:101730000E946D08089588E36CE00E945A0808959D
:10174000482F88E36DE00E946D08089588E36DE0FE
:101750000E945A0808951F93182F843078F488E364
:101760006BE00E945A08837F412F440F440F482B9F
:1017700088E36BE00E946D0881E001C080E01F916A
:10178000089588E36BE00E945A088C7086958695D0
:1017900008951F93182F88E361E10E945A08482F8B
:1017A0004C7F1770412B88E361E10E946D081F9107
:1017B000089588E361E10E945A0887700895482FD0
:1017C00088E36EE00E946D08089588E36EE00E9451
:1017D0005A080895482F88E36FE00E946D08089525
:1017E00088E36FE00E945A0808951F93182F8430F1
:1017F00078F488E36BE00E945A088F7C412F429571
:10180000407F482B88E36BE00E946D0881E001C0B7
:1018100080E01F91089588E36BE00E945A0880736E
:1018200082958F7008951F93182F88E361E10E94BD
:101830005A08887F412F4770440F440F440F482BAC
:1018400088E361E10E946D081F91089588E361E1DA
:101850000E945A0888738695869586950895482F24
:1018600088E360E10E946D08089588E360E10E94CA
:101870005A0808951F93182F813031F0833021F0DA
:10188000853011F08730C9F488E361E10E945A087D
:10189000482F4F73113059F0133011F4406407C0D2
:1018A000153011F4406803C0173009F4406C88E328
:1018B00061E10E946D0881E001C080E01F91089500
:1018C00088E361E10E945A08807C803429F0803CE2
:1018D00031F487E090E0089583E090E0089581E09E
:1018E00090E00895282F88E365E140E00E948C088D
:1018F000089588E365E140E00E9478080895CF9359
:10190000DF93EC018431910559F08035910541F068
:1019100081E0C034D80721F08AE0C030D807F9F45C
:1019200088E365E10E945A08482F497FC431D105F8
:1019300081F0C035D10511F442600BC081E0C034A4
:10194000D80711F4446005C08AE0C030D80709F414
:10195000466088E365E10E946D0881E001C080E097
:10196000DF91CF91089588E365E10E945A0886705F
:10197000823039F0843041F0863049F420E03AE09A
:1019800008C020E530E005C020E431E002C024E1D9
:1019900030E0C9010895CF93DF93EC0189319105BF
:1019A000A9F08233910591F08436910579F08E3B50
:1019B000910561F081E0C737D80741F082E0CE3E63
:1019C000D80721F085E0CC3DD80779F588E364E1BC
:1019D0000E945A08482F487FC931D10501F1C2330E
:1019E000D10511F441601BC0C436D10511F4426029
:1019F00016C0CE3BD10511F4436011C081E0C7375A
:101A0000D80711F444600BC082E0CE3ED80711F431
:101A1000456005C085E0CC3DD80709F4466088E301
:101A200064E10E946D0881E001C080E0DF91CF9108
:101A3000089588E364E10E945A088770813069F054
:101A4000823071F0833079F0843081F0853089F014
:101A5000863091F42CED35E011C022E330E00EC069
:101A600024E630E00BC02EEB30E008C027E731E081
:101A700005C02EEE32E002C029E130E0C901089530
:101A80001F93182F823021F0843011F08830A9F490
:101A900088E364E10E945A08482F477E123039F0EB
:101AA000143011F4486003C0183009F4406188E331
:101AB00064E10E946D0881E001C080E01F910895FB
:101AC00088E364E10E945A088871883021F08031EF
:101AD00021F488E0089584E0089582E00895482F75
:101AE00088E362E10E946D08089588E362E10E9444
:101AF0005A080895482F88E363E10E946D0808950D
:101B000088E363E10E945A080895089583B78860C6
:101B100083BF83B7866083BF87B7826087BF85E94D
:101B200081BF0895BF92CF92DF92EF92FF920F9301
:101B30001F93DF93CF93CDB7DEB728970FB6F894F6
:101B4000DEBF0FBECDBF32E0D32E23E0B22E93E036
:101B5000E92EF12CEC0EFD1E8AE0C82E8E010F5FDF
:101B60001F4F8091FB038823E1F31092FB038091C8
:101B7000FC03882371F485B38B2585BBC7010E94C4
:101B8000B509C982CA82C8010E94E00E85B38D25BD
:101B900085BB8091FC03833041F485B38D2585BBE3
:101BA0000E94E80E85B38D2585BB8091FC03D9CFBB
:101BB0001F920F920FB60F9211248F939F938091D3
:101BC000FC03843038F01092FC0385B394E089273D
:101BD00085BB05C08091FC038F5F8093FC0381E08F
:101BE0008093FB039F918F910F900FBE0F901F90DA
:101BF00018958FEF84BB60E875E280E090E00E946A
:101C000091090E94690778940E94590A0E94D50E92
:101C10000E94860D0E94920D80E090E0089510923F
:101C2000110480931204609313040E949D0788E5B9
:101C300063E00E9478070895482F88E560E00E94DD
:101C40006D080895482F88E561E00E946D080895A9
:101C500088E560E00E945A08089588E561E00E94E6
:101C60005A080895482F88E56EE00E946D0808958F
:101C700088E56EE00E945A080895482F823020F0CF
:101C8000833011F0823021F488E56FE00E946D0806
:101C9000089588E56FE00E945A080895EF92FF9238
:101CA0000F931F93882311F482E001C086E0809394
:101CB00011040E949D0788E561E00E94780788E58D
:101CC00064E00E948B072091020430E040E050E085
:101CD000522F442733272227E0900304E091040485
:101CE00060910504FF2400E010E08701FF24EE244A
:101CF0002E293F29402B512B70E080E090E0262BCD
:101D0000372B482B592B8E2F90E0A0E0B0E0BA2F54
:101D1000A92F982F8827282B392B4A2B5B2BB90109
:101D2000CA011F910F91FF90EF90089588E56AE036
:101D30000E945A080895882329F488E56BE00E94E0
:101D40005A08089588E56BE00E945A08089588E5CE
:101D50006DE00E945A08089588E560E140E20E9423
:101D60006D080895882321F088E560E141E303C010
:101D700088E560E140E30E946D080895882321F022
:101D800088E560E143E303C088E560E142E30E9447
:101D90006D08089581E00E943D0E8AE00E94320E97
:101DA00080E060E00E940F0E08951092FF031092F1
:101DB00000041092FD031092FE030E94CA0E0895C3
:101DC000FC0180818093FD0381818093FE0308954F
:101DD0008091FD036091FE030E940F0E8091FD0330
:101DE0008093FF038091FE03809300040895FC011B
:101DF0008091FF0380838091000481830895FC011A
:101E00008091FD0380838091FE03818308951F9359
:101E1000CF93DF93EC01DB011889E12FFF27E7FD6A
:101E2000F095BD01882777FD8095982FEE0FFF1F55
:101E3000EC0FFD1F20813181442737FD4095542F41
:101E4000621B730B840B950B29893A894B895C893A
:101E5000620F731F841F951F698B7A8B8B8B9C8BF2
:101E6000B183A08328E030E040E050E00E944E15AE
:101E70003E8B2D8B17301CF41F5F188B01C0188A06
:101E8000DF91CF911F910895A3E1B0E0EAE4FFE074
:101E90000C9469156C017F876E87FC01178216828E
:101EA000838181FD04C06FC34C855D8504C01E0124
:101EB0000894211C311CF6019381EE85FF8593FD6A
:101EC000859193FF8191FF87EE87882309F457C39B
:101ED000853241F493FD859193FF8191FF87EE87D1
:101EE000853259F490E0B6014A8B5B8B0E94A216B2
:101EF0004A895B895D874C87D7CF10E0FF2400E0DB
:101F00000032B0F48B3269F08C3228F4803251F018
:101F1000833271F40BC08D3239F0803349F40160A3
:101F20002CC00260046029C0086027C0006125C081
:101F300007FD2EC0282F20532A3098F406FF08C032
:101F4000812F880F182F110F110F180F120F15C0A6
:101F50008F2D880FF82EFF0CFF0CF80EF20E00628A
:101F60000CC08E3221F406FD0AC3006406C08C3614
:101F700011F4006802C0883659F4EE85FF8593FDA0
:101F8000859193FF8191FF87EE87882309F0B8CF71
:101F9000982F9554933018F40061805E06C0982FF6
:101FA0009556933008F09BC10F7E06FF16E06FE355
:101FB000E62EE022853619F4F0E4EF2A07C08636D3
:101FC00019F420E8E22A02C011111150E7FE06C000
:101FD0001C3340F4912E939427E00BC0183030F45A
:101FE000212F06C027E03CE3932E03C027E017E033
:101FF0009924CA0104969D878C87FA0160817181BA
:1020000082819381A101092D0E94B4155C01698030
:10201000262D30E0398B288B60FE03C0388933FFD2
:1020200006C0E1FC06C0E2FE06C000E205C00DE20B
:1020300003C00BE201C000E0888999898C70907020
:102040000097C1F1002311F084E001C083E08F15F7
:1020500058F4F81AE3FC09C080E290E0B6010E944F
:10206000A216FA94C9F701C0FF24002329F0802F9B
:1020700090E0B6010E94A216888983FD03C00DEB93
:1020800010E00EC009EB10E00BC0A114B10409F080
:10209000805290E0B6010E94A2160F5F1F4F05C04C
:1020A000AE2CBB2490E1A922BB24F80184918823A3
:1020B00061F762C2E7FE0EC09A0CF889F4FF04C013
:1020C0008A81813309F49A94191454F5292D293001
:1020D00050F52DC0E6FC2BC0812F90E08A159B05A2
:1020E0004CF03CEFA3163FEFB30624F080E8E82A5B
:1020F00001C01150112349F0E2E0F0E0EC0FFD1FA8
:10210000E10FF11D80818033A1F3E7FE10C0912E15
:102110009394812F90E0A816B90644F41A1907C0C9
:102120009924939404C098E0992E01C010E0E7FE32
:1021300007C01A141B043CF495012F5F3F4F05C0E4
:1021400025E030E002C021E030E0002311F02F5FF5
:102150003F4F112329F0812F90E00196280F391F5E
:102160008F2D90E02817390714F4F21A01C0FF24CC
:102170004E2C5524C20189709070009749F406C016
:1021800080E290E0B6010E94A216FA94FF20C1F707
:10219000002329F0802F90E0B6010E94A21643FC94
:1021A00009C006C080E390E0B6010E94A216FA942E
:1021B000FF20C1F7E7FE46C03501B7FE02C0662426
:1021C000772425010894411C511C46185708420CDD
:1021D000531CF501E919F1094F01812F90E0002707
:1021E0001127081B190BFFEF6F16FFEF7F0629F46D
:1021F0008EE290E0B6010E94A216A614B70434F055
:10220000861497041CF4F201808101C080E30894D5
:10221000610871080894411C511C601671062CF06D
:1022200090E0B6010E94A216DECF6A147B0441F44E
:102230009A81963320F4953319F4F889F4FF81E3F9
:1022400090E049C08A81813311F02FEE622290E044
:10225000B6010E94A216112389F08EE290E0B60129
:102260000E94A21602E0F101E00FF11D0F5F8081D4
:1022700090E0B6010E94A2161150A9F744FE03C0D7
:1022800085E490E002C085E690E0B6010E94A216C7
:10229000B7FC05C0A114B10441F464FE06C0B094BB
:1022A000A194B108B3948DE201C08BE290E0B60135
:1022B0000E94A21680E305C08F5FE6EFFFEFAE0E2F
:1022C000BF1EFAE0AF16B104BCF790E0B6010E9461
:1022D000A216C501C096B6010E94A2164DC1833652
:1022E00031F0833789F0833509F059C022C09A0153
:1022F0002E5F3F4F3D872C87FA0180818983310112
:1023000081E0A82EB12C13C09A012E5F3F4F3D876C
:102310002C87FA016080718006FF03C0612F70E096
:1023200002C06FEF7FEFC3010E9497165C010F7729
:1023300014C09A012E5F3F4F3D872C87FA016080C1
:10234000718006FF03C0612F70E002C06FEF7FEF66
:10235000C3010E948C165C01006803FD1CC006C00E
:1023600080E290E0B6010E94A216FA948F2D90E0D0
:10237000A816B906A8F30FC0F30107FD859107FF62
:1023800081913F0190E0B6010E94A216F110FA94EB
:102390000894A108B108A114B10471F7EDC0843606
:1023A00011F0893661F507FF0BC09A012C5F3F4F92
:1023B0003D872C87FA0160817181828193810CC0F5
:1023C0009A012E5F3F4F3D872C87FA016081718112
:1023D000882777FD8095982F0F7697FF08C09095F6
:1023E0008095709561957F4F8F4F9F4F0068A10139
:1023F0002AE030E00E941F17982E921841C08537BE
:1024000021F40F7E2AE030E020C0097F8F36A9F04A
:10241000803720F4883509F0B2C00BC0803721F036
:10242000883709F0ACC001C0006104FF09C0046036
:1024300007C004FF08C0066006C028E030E005C001
:1024400020E130E002C020E132E007FF0AC0CA010B
:1024500004969D878C87FA016081718182819381C6
:1024600009C0CA0102969D878C87FA01608171813B
:1024700080E090E0A1010E941F17982E92180F771C
:1024800006FF09C00E7F911630F404FF06C002FD5E
:1024900004C00F7E02C0E92C01C0E12E802F90E025
:1024A00004FF0CC0FE01E90DF11D2081203311F461
:1024B000097E09C0E39402FF06C004C086789070CC
:1024C000009709F0E394A02EBB2403FD14C000FF85
:1024D0000FC0EF1428F4192D1F0D1E19EF2C08C082
:1024E000192D06C080E290E0B6010E94A216E39486
:1024F000EF14C0F304C0EF1410F4FE1801C0FF2461
:10250000A4FE0FC080E390E0B6010E94A216A2FED6
:102510001FC0A1FE03C088E590E010C088E790E0EE
:102520000DC0C50186789070009791F0A1FC02C0A3
:1025300080E201C08BE207FD8DE290E0B6010E94CF
:10254000A21606C080E390E0B6010E94A2161150C8
:102550009116C0F39A94F101E90DF11D808190E08C
:10256000B6010E94A2169920A9F706C080E290E069
:10257000B6010E94A216FA94FF20C1F795CCF6018D
:102580002681378102C02FEF3FEFC9016396E2E158
:102590000C94851532D158F080E891E009F49EEF53
:1025A00033D128F040E851E059F45EEF09C0FDC096
:1025B00065C1E92FE07840D168F3092E052AC1F3FF
:1025C000261737074807590738F00E2E07F8E02579
:1025D00069F0E025E0640AC0EF6307F8009407FAA9
:1025E000DB01B9019D01DC01CA01AD01EF9341D0CE
:1025F00012D10AD05F91552331F02BED3FE049E431
:1026000050FD49ECB0C10895DF93DD27B92FBF77A6
:1026100040E85FE31616170648075B0710F4D92F4A
:1026200034D19F938F937F936F9399D1ECE8F0E02F
:10263000BFD0F1D02F913F914F915F9139D1DD23E0
:1026400049F09058A2EA2AED3FE049EC5FE3D078E8
:102650005D279AD1DF91DFC0D7D040F0CED030F0E7
:1026600021F45F3F19F09BC0511109C19EC0E4D015
:1026700098F39923C9F35523B1F3951B550BBB2749
:10268000AA2762177307840738F09F5F5F4F220FF6
:10269000331F441FAA1FA9F333D00E2E3AF0E0E8EF
:1026A00030D091505040E695001CCAF729D0FE2F3B
:1026B00027D0660F771F881FBB1F261737074807CD
:1026C000AB07B0E809F0BB0B802DBF01FF27935883
:1026D0005F4F2AF09E3F510568F061C0D0C05F3F58
:1026E000ECF3983EDCF3869577956795B795F7956B
:1026F0009F5FC9F7880F911D9695879597F9089563
:10270000E1E0660F771F881FBB1F621773078407FE
:10271000BA0720F0621B730B840BBA0BEE1F88F70D
:10272000E0950895E89409C097FB3EF49095809554
:10273000709561957F4F8F4F9F4F9923A9F0F92F87
:1027400096E9BB279395F695879577956795B79505
:10275000F111F8CFFAF4BB0F11F460FF1BC06F5FEB
:102760007F4F8F4F9F4F16C0882311F096E911C0FD
:10277000772321F09EE8872F762F05C0662371F01E
:1027800096E8862F70E060E02AF09A95660F771F32
:10279000881FDAF7880F9695879597F9089597F926
:1027A0009F6780E870E060E008959FEF80EC0895F7
:1027B000DF93CF931F930F93FF92EF92DF927B01F2
:1027C0008C01689405C0DA2EEF0172D0FE01E89406
:1027D000A5912591359145915591AEF3EF01D4D056
:1027E000FE019701A801DA9479F7DF90EF90FF904E
:1027F0000F911F91CF91DF91089500240A9416162E
:10280000170618060906089500240A9412161306DE
:10281000140605060895092E0394000C11F488236C
:1028200052F0BB0F40F4BF2B11F460FF04C06F5F88
:102830007F4F8F4F9F4F089557FD9058440F551F5E
:1028400059F05F3F71F04795880F97FB991F61F032
:102850009F3F79F087950895121613061406551FA9
:10286000F2CF4695F1DF08C0161617061806991F15
:10287000F1CF86957105610508940895E894BB270A
:1028800066277727CB0197F908959B01AC0160E09B
:1028900070E080E89FE3CBC00BD0BDCFAEDF28F067
:1028A000B3DF18F0952309F07ACF7FCF1124E7CF5B
:1028B000C3DFA0F3959FD1F3950F50E0551F629FA2
:1028C000F001729FBB27F00DB11D639FAA27F00D89
:1028D000B11DAA1F649F6627B00DA11D661F829FB0
:1028E0002227B00DA11D621F739FB00DA11D621F95
:1028F000839FA00D611D221F749F3327A00D611DB2
:10290000231F849F600D211D822F762F6A2F112493
:102910009F5750408AF0E1F088234AF0EE0FFF1FE6
:10292000BB1F661F771F881F91505040A9F79E3F1D
:10293000510570F034CFA3CF5F3FECF3983EDCF34A
:10294000869577956795B795F795E7959F5FC1F75A
:10295000FE2B880F911D9695879597F908959B01F9
:10296000AC019ACF5058BB27AA270ED054CF45DFD1
:1029700030F04ADF20F031F49F3F11F41EF415CF00
:102980000EF4E095E7FB0BCFE92F56DF80F3BA1783
:10299000620773078407950718F071F49EF56ECFF0
:1029A0000EF4E0950B2EBA2FA02D0B01B90190016A
:1029B0000C01CA01A0011124FF27591B99F0593FAE
:1029C00050F4503E68F11A16F040A22F232F342FF6
:1029D0004427585FF3CF469537952795A795F04044
:1029E0005395C9F77EF41F16BA0B620B730B840B59
:1029F000BAF09150A1F0FF0FBB1F661F771F881F11
:102A0000C2F70EC0BA0F621F731F841F48F4879568
:102A100077956795B795F7959E3F08F0B3CF939557
:102A2000880F08F09927EE0F9795879508951FDE78
:102A3000F2CE97FB092E07260AD077FD04D080D06E
:102A400006D000201AF4709561957F4F0895F6F72F
:102A5000909581959F4F0895A1E21A2EAA1BBB1B4A
:102A6000FD010DC0AA1FBB1FEE1FFF1FA217B3075A
:102A7000E407F50720F0A21BB30BE40BF50B661F70
:102A8000771F881F991F1A9469F760957095809534
:102A900090959B01AC01BD01CF01089597FB092ED4
:102AA00005260ED057FD04D0D7DF0AD0001C38F41D
:102AB00050954095309521953F4F4F4F5F4F08956A
:102AC000F6F790958095709561957F4F8F4F9F4F4A
:102AD00008952F923F924F925F926F927F928F92C2
:102AE0009F92AF92BF92CF92DF92EF92FF920F939D
:102AF0001F93CF93DF93CDB7DEB7CA1BDB0B0FB6A7
:102B0000F894DEBF0FBECDBF09942A883988488863
:102B10005F846E847D848C849B84AA84B984C884F9
:102B2000DF80EE80FD800C811B81AA81B981CE0FF0
:102B3000D11D0FB6F894DEBF0FBECDBFED010895D5
:102B4000AA1BBB1B51E107C0AA1FBB1FA617B707D3
:102B500010F0A61BB70B881F991F5A95A9F78095EF
:102B60009095BC01CD010895283008F027E0332767
:102B7000DA01990F311D87FD91600096610571059D
:102B800039F432602E5F3D9330E32A95E1F70895E2
:102B90009F3F30F080387105610509F03C5F3C5F74
:102BA0003D93913008F08068911DDF93CF931F9380
:102BB0000F93FF92EF92192F987F9695E92F969594
:102BC0009695E90FFF27E55EFE4F99273327EE2400
:102BD000FF24A701E70105900894079428F4360F15
:102BE000E71EF81E491F511D660F771F881F991F8A
:102BF0000694A1F70590079428F4E70EF81E491FE4
:102C0000561FC11D770F881F991F661F0694A1F7D5
:102C10000590079428F4F80E491F561FC71FD11DB1
:102C2000880F991F661F771F0694A1F705900794D8
:102C300020F4490F561FC71FD81F990F661F771F13
:102C4000881F0694A9F784911095177041F0D695C6
:102C5000C79557954795F794E7941A95C1F7E1EC16
:102C6000F0E06894159015913591659195910590D6
:102C70007FE27395E118F10A430B560BC90BD0099B
:102C8000C0F7E10CF11E431F561FC91FD01D7EF473
:102C9000703311F48A95E6CFE894015030F0080FB4
:102CA0000AF40027021708F4202F2395022F7A3305
:102CB00028F079E37D932A95E9F710C07D932A9552
:102CC00089F6069497956795379517951794E118A7
:102CD000F10A430B560BC90BD00998F023957E914E
:102CE00073957A3308F070E37C932013B8F77E91E4
:102CF00070617D9330F0839571E37D9370E32A9545
:102D0000E1F71124EF90FF900F911F91CF91DF9188
:102D1000992787FD90950895FC01059061507040BA
:102D20000110D8F7809590958E0F9F1F0895FC0194
:102D30006150704001900110D8F7809590958E0FEA
:102D40009F1F08950F931F93CF93DF938C01EB0187
:102D50008B8181FF1BC082FF0DC02E813F818C8142
:102D60009D812817390764F4E881F9810193F9837B
:102D7000E88306C0E885F985802F0995009731F42E
:102D80008E819F8101969F838E8302C00FEF1FEF7C
:102D9000C801DF91CF911F910F910895A0E0B0E09D
:102DA000E4EDF6E10C947915FE013596619171918F
:102DB00080911D0490911E04AF010E94440F209643
:102DC000E2E00C94951560911D0470911E040E9420
:102DD000A2160895EF92FF920F931F93CF93DF9364
:102DE0008C01E0911D04F0911E04838181FF1FC0BE
:102DF000C0E0D0E00AC0DB011896ED91FC91199774
:102E00000995009711F0CFEFDFEFF80181918F0165
:102E100060911D0470911E04882369F7DB011896E8
:102E2000ED91FC9119978AE00995009711F0CFEF89
:102E3000DFEFCE01CDB7DEB7E6E00C949115FA01D5
:102E4000AA27283051F1203181F1E8946F936E7FE9
:102E50006E5F7F4F8F4F9F4FAF4FB1E03ED0B4E0DA
:102E60003CD0670F781F891F9A1FA11D680F791F1B
:102E70008A1F911DA11D6A0F711D811D911DA11D2C
:102E800020D009F468943F912AE0269F112430193C
:102E9000305D3193DEF6CF010895462F4770405DD7
:102EA0004193B3E00FD0C9F7F6CF462F4F70405D86
:102EB0004A3318F0495D31FD4052419302D0A9F7E1
:102EC000EACFB4E0A6959795879577956795BA95DB
:102ED000C9F700976105710508959B01AC010A2EA1
:102EE00006945795479537952795BA95C9F7620F78
:0E2EF000731F841F951FA01D0895F894FFCF37
:102EFE006F66667365743A20783A256420793A25B0
:102F0E0064207A3A25640A00613A7A3A25640A0006
:102F1E00583A20256420593A202564205A3A202513
:102F2E00640A00736C6565702077656C6C2C206C80
:102F3E006974746C6520626D613032302E2E0058CB
:102F4E003A20256420593A202564205A3A25640AED
:102F5E000077616B652075702100656E636F646527
:102F6E0072204D313A20256C642000656E636F64CB
:102F7E006572204D323A20256C640A00563A20259F
:102F8E0064200041284D31293A2025642000412833
:102F9E004D32293A2025640A0073746172742074CC
:102FAE006573745F6D6432355F616363656C657202
:102FBE006174696F6E28766F696429006D643235AD
:102FCE005F7365745F737065656428302C203029DB
:102FDE00006D6432355F7365745F616363656C6544
:102FEE00726174696F6E5F72617465284D4432351B
:102FFE005F414343454C45524154494F4E5F4D4905
:10300E004E29006D6432355F7365745F737065654C
:10301E0064283130302C2030293B006D6432355F0E
:10302E00636D645F656E61626C655F737065656428
:10303E005F726567756C6174696F6E2866616C731B
:10304E0065293B006D6432355F7365745F7370651F
:10305E006564283130302C20302900746573745F1C
:10306E006D6F746F725F636F6E74726F6C5F73658A
:10307E00745F646966666572656E745F73706565AC
:10308E00647328766F69642900696E6974006375CC
:10309E007272656E743A204D31203D202564202CCD
:1030AE00204D32203D2025640A0073746F7000524B
:1030BE006567697374657220307825303278203DEB
:1030CE00203078253032780A0072656164206F6C8A
:1030DE00642076616C756573007772697465206E15
:1030EE0065772072656769737465722076616C7599
:1030FE0065730072656164206E65772076616C750C
:10310E006573007769706520637573746F6D657292
:10311E0020726567697374657273203120616E6405
:10312E00203200777269746520626974730015012C
:10313E00000000000300000000B208C208000000FA
:0E314E0000000200000000B2080000000000B7
:00000001FF
